{
  "contractName": "OptAction",
  "abi": [
    {
      "constant": true,
      "inputs": [
        {
          "name": "",
          "type": "uint256"
        }
      ],
      "name": "optActionIndex",
      "outputs": [
        {
          "name": "",
          "type": "uint256"
        }
      ],
      "payable": false,
      "stateMutability": "view",
      "type": "function"
    },
    {
      "constant": true,
      "inputs": [
        {
          "name": "",
          "type": "uint256"
        }
      ],
      "name": "optActionStructs",
      "outputs": [
        {
          "name": "index",
          "type": "uint256"
        },
        {
          "name": "urn",
          "type": "uint256"
        },
        {
          "name": "optId",
          "type": "uint256"
        },
        {
          "name": "action",
          "type": "uint256"
        },
        {
          "name": "timestamp",
          "type": "uint256"
        },
        {
          "name": "optText",
          "type": "string"
        }
      ],
      "payable": false,
      "stateMutability": "view",
      "type": "function"
    },
    {
      "constant": true,
      "inputs": [
        {
          "name": "optActionId",
          "type": "uint256"
        }
      ],
      "name": "isOptAction",
      "outputs": [
        {
          "name": "isIndeed",
          "type": "bool"
        }
      ],
      "payable": false,
      "stateMutability": "view",
      "type": "function"
    },
    {
      "constant": false,
      "inputs": [
        {
          "name": "optActionId",
          "type": "uint256"
        },
        {
          "name": "urn",
          "type": "uint256"
        },
        {
          "name": "optId",
          "type": "uint256"
        },
        {
          "name": "action",
          "type": "uint256"
        },
        {
          "name": "timestamp",
          "type": "uint256"
        },
        {
          "name": "optText",
          "type": "string"
        }
      ],
      "name": "insertOptAction",
      "outputs": [
        {
          "name": "index",
          "type": "uint256"
        }
      ],
      "payable": false,
      "stateMutability": "nonpayable",
      "type": "function"
    },
    {
      "constant": true,
      "inputs": [
        {
          "name": "optActionId",
          "type": "uint256"
        }
      ],
      "name": "getOptAction",
      "outputs": [
        {
          "name": "urn",
          "type": "uint256"
        },
        {
          "name": "optId",
          "type": "uint256"
        },
        {
          "name": "action",
          "type": "uint256"
        },
        {
          "name": "timestamp",
          "type": "uint256"
        },
        {
          "name": "optText",
          "type": "string"
        },
        {
          "name": "index",
          "type": "uint256"
        }
      ],
      "payable": false,
      "stateMutability": "view",
      "type": "function"
    },
    {
      "constant": true,
      "inputs": [],
      "name": "getOptActionCount",
      "outputs": [
        {
          "name": "count",
          "type": "uint256"
        }
      ],
      "payable": false,
      "stateMutability": "view",
      "type": "function"
    },
    {
      "constant": true,
      "inputs": [
        {
          "name": "index",
          "type": "uint256"
        }
      ],
      "name": "getOptActionIdAtIndex",
      "outputs": [
        {
          "name": "optActionId",
          "type": "uint256"
        }
      ],
      "payable": false,
      "stateMutability": "view",
      "type": "function"
    }
  ],
  "bytecode": "0x608060405234801561001057600080fd5b50610857806100206000396000f300608060405260043610610083576000357c0100000000000000000000000000000000000000000000000000000000900463ffffffff16806301e5f6171461008857806330d1b1c9146100c95780637b88def31461010a5780638ac794d1146101355780639b5dd94b146101fe578063c631cb3f146102c7578063f961b5cf14610376575b600080fd5b34801561009457600080fd5b506100b3600480360381019080803590602001909291905050506103bb565b6040518082815260200191505060405180910390f35b3480156100d557600080fd5b506100f4600480360381019080803590602001909291905050506103de565b6040518082815260200191505060405180910390f35b34801561011657600080fd5b5061011f610401565b6040518082815260200191505060405180910390f35b34801561014157600080fd5b506101606004803603810190808035906020019092919050505061040e565b6040518087815260200186815260200185815260200184815260200180602001838152602001828103825284818151815260200191508051906020019080838360005b838110156101be5780820151818401526020810190506101a3565b50505050905090810190601f1680156101eb5780820380516001836020036101000a031916815260200191505b5097505050505050505060405180910390f35b34801561020a57600080fd5b5061022960048036038101908080359060200190929190505050610560565b6040518087815260200186815260200185815260200184815260200183815260200180602001828103825283818151815260200191508051906020019080838360005b8381101561028757808201518184015260208101905061026c565b50505050905090810190601f1680156102b45780820380516001836020036101000a031916815260200191505b5097505050505050505060405180910390f35b3480156102d357600080fd5b506103606004803603810190808035906020019092919080359060200190929190803590602001909291908035906020019092919080359060200190929190803590602001908201803590602001908080601f0160208091040260200160405190810160405280939291908181526020018383808284378201915050505050509192919290505050610634565b6040518082815260200191505060405180910390f35b34801561038257600080fd5b506103a160048036038101908080359060200190929190505050610735565b604051808215151515815260200191505060405180910390f35b6001818154811015156103ca57fe5b906000526020600020016000915090505481565b60006001828154811015156103ef57fe5b90600052602060002001549050919050565b6000600180549050905090565b6000806000806060600061042187610735565b151561042c57600080fd5b60008088815260200190815260200160002060010154600080898152602001908152602001600020600201546000808a8152602001908152602001600020600301546000808b8152602001908152602001600020600401546000808c81526020019081526020016000206005016000808d815260200190815260200160002060000154818054600181600116156101000203166002900480601f0160208091040260200160405190810160405280929190818152602001828054600181600116156101000203166002900480156105445780601f1061051957610100808354040283529160200191610544565b820191906000526020600020905b81548152906001019060200180831161052757829003601f168201915b5050505050915095509550955095509550955091939550919395565b6000602052806000526040600020600091509050806000015490806001015490806002015490806003015490806004015490806005018054600181600116156101000203166002900480601f01602080910402602001604051908101604052809291908181526020018280546001816001161561010002031660029004801561062a5780601f106105ff5761010080835404028352916020019161062a565b820191906000526020600020905b81548152906001019060200180831161060d57829003601f168201915b5050505050905086565b600061063f87610735565b1561064957600080fd5b85600080898152602001908152602001600020600101819055508460008089815260200190815260200160002060020181905550836000808981526020019081526020016000206003018190555082600080898152602001908152602001600020600401819055508160008089815260200190815260200160002060050190805190602001906106da929190610786565b5060018088908060018154018082558091505090600182039060005260206000200160009091929091909150550360008089815260200190815260200160002060000181905550600180805490500390509695505050505050565b600080600180549050141561074d5760009050610781565b8160016000808581526020019081526020016000206000015481548110151561077257fe5b90600052602060002001541490505b919050565b828054600181600116156101000203166002900490600052602060002090601f016020900481019282601f106107c757805160ff19168380011785556107f5565b828001600101855582156107f5579182015b828111156107f45782518255916020019190600101906107d9565b5b5090506108029190610806565b5090565b61082891905b8082111561082457600081600090555060010161080c565b5090565b905600a165627a7a7230582044b4fa9f86dbf526c57946cb058a598ebb21da1fe327e7412e90186c62b5d7d80029",
  "source": "pragma solidity ^0.4.18;\n\ncontract OptAction {\n    struct OptActionStruct {\n        uint index;\n        uint urn;\n        uint optId;\n        uint action;\n        uint timestamp;\n        string optText;\n    }\n\n    mapping(uint => OptActionStruct) public optActionStructs;\n    uint[] public optActionIndex;\n\n\n    function isOptAction(uint optActionId) public constant returns (bool isIndeed) {\n        if (optActionIndex.length == 0) return false;\n\n        return (optActionIndex[optActionStructs[optActionId].index] == optActionId);\n    }\n\n    function insertOptAction(\n        uint optActionId,\n        uint urn,\n        uint optId,\n        uint action,\n        uint timestamp,\n        string optText\n    ) public returns (uint index) {\n        if (isOptAction(optActionId)) revert();\n\n        optActionStructs[optActionId].urn = urn;\n        optActionStructs[optActionId].optId = optId;\n        optActionStructs[optActionId].action = action;\n        optActionStructs[optActionId].timestamp = timestamp;\n        optActionStructs[optActionId].optText = optText;\n        optActionStructs[optActionId].index = optActionIndex.push(optActionId) - 1;\n\n        return optActionIndex.length - 1;\n    }\n\n    function getOptAction(uint optActionId) public constant returns (uint urn, uint optId, uint action, uint timestamp, string optText, uint index) {\n        if (!isOptAction(optActionId)) revert();\n\n        return (\n        optActionStructs[optActionId].urn,\n        optActionStructs[optActionId].optId,\n        optActionStructs[optActionId].action,\n        optActionStructs[optActionId].timestamp,\n        optActionStructs[optActionId].optText,\n        optActionStructs[optActionId].index\n        );\n    }\n\n    function getOptActionCount() public constant returns (uint count) {\n        return optActionIndex.length;\n    }\n\n    function getOptActionIdAtIndex(uint index) public constant returns (uint optActionId) {\n        return optActionIndex[index];\n    }\n\n    // TODO: Should be adjusted to build an array with all the items on the mapping (traverse the mapping using the array of indexes)\n\n    //function getOptActions() public constant returns (uint[] optActions) {\n    //    return optActionIndex;\n    //}\n\n}",
  "sourcePath": "/home/jorge/code/blockchain/test1/contracts/OptAction.sol",
  "compiler": {
    "name": "solc",
    "version": "0.4.24+commit.e67f0147.Emscripten.clang"
  },
  "schemaVersion": "2.0.1",
  "updatedAt": "2018-07-04T14:34:43.621Z"
}